{
  "contractName": "ProductTracker",
  "abi": [
    {
      "inputs": [],
      "payable": false,
      "stateMutability": "nonpayable",
      "type": "constructor"
    },
    {
      "anonymous": false,
      "inputs": [
        {
          "indexed": false,
          "internalType": "uint256",
          "name": "id",
          "type": "uint256"
        },
        {
          "indexed": false,
          "internalType": "string",
          "name": "name",
          "type": "string"
        },
        {
          "indexed": false,
          "internalType": "uint256",
          "name": "dateOfPurchase",
          "type": "uint256"
        },
        {
          "indexed": false,
          "internalType": "uint256",
          "name": "warrantyPeriod",
          "type": "uint256"
        },
        {
          "indexed": false,
          "internalType": "uint256",
          "name": "price",
          "type": "uint256"
        },
        {
          "indexed": false,
          "internalType": "address payable",
          "name": "ownerAddress",
          "type": "address"
        }
      ],
      "name": "ProductAdded",
      "type": "event"
    },
    {
      "anonymous": false,
      "inputs": [
        {
          "indexed": false,
          "internalType": "uint256",
          "name": "id",
          "type": "uint256"
        },
        {
          "indexed": false,
          "internalType": "string",
          "name": "name",
          "type": "string"
        },
        {
          "indexed": false,
          "internalType": "uint256",
          "name": "dateOfPurchase",
          "type": "uint256"
        },
        {
          "indexed": false,
          "internalType": "uint256",
          "name": "warrantyPeriod",
          "type": "uint256"
        },
        {
          "indexed": false,
          "internalType": "uint256",
          "name": "price",
          "type": "uint256"
        },
        {
          "indexed": false,
          "internalType": "address payable",
          "name": "ownerAddress",
          "type": "address"
        }
      ],
      "name": "ProductPurchased",
      "type": "event"
    },
    {
      "constant": true,
      "inputs": [
        {
          "internalType": "uint256",
          "name": "",
          "type": "uint256"
        }
      ],
      "name": "product",
      "outputs": [
        {
          "internalType": "uint256",
          "name": "id",
          "type": "uint256"
        },
        {
          "internalType": "string",
          "name": "name",
          "type": "string"
        },
        {
          "internalType": "uint256",
          "name": "dateOfPurchase",
          "type": "uint256"
        },
        {
          "internalType": "uint256",
          "name": "warrantyPeriod",
          "type": "uint256"
        },
        {
          "internalType": "uint256",
          "name": "price",
          "type": "uint256"
        },
        {
          "internalType": "address payable",
          "name": "ownerAddress",
          "type": "address"
        }
      ],
      "payable": false,
      "stateMutability": "view",
      "type": "function"
    },
    {
      "constant": true,
      "inputs": [],
      "name": "productCount",
      "outputs": [
        {
          "internalType": "uint256",
          "name": "",
          "type": "uint256"
        }
      ],
      "payable": false,
      "stateMutability": "view",
      "type": "function"
    },
    {
      "constant": true,
      "inputs": [],
      "name": "product_manufacturer",
      "outputs": [
        {
          "internalType": "address payable",
          "name": "",
          "type": "address"
        }
      ],
      "payable": false,
      "stateMutability": "view",
      "type": "function"
    },
    {
      "constant": false,
      "inputs": [
        {
          "internalType": "string",
          "name": "_name",
          "type": "string"
        },
        {
          "internalType": "uint256",
          "name": "_dateOfPurchase",
          "type": "uint256"
        },
        {
          "internalType": "uint256",
          "name": "_wPeriod",
          "type": "uint256"
        },
        {
          "internalType": "uint256",
          "name": "_price",
          "type": "uint256"
        }
      ],
      "name": "addProduct",
      "outputs": [],
      "payable": false,
      "stateMutability": "nonpayable",
      "type": "function"
    },
    {
      "constant": false,
      "inputs": [
        {
          "internalType": "uint256",
          "name": "_pId",
          "type": "uint256"
        }
      ],
      "name": "buyProduct",
      "outputs": [],
      "payable": true,
      "stateMutability": "payable",
      "type": "function"
    }
  ],
  "bytecode": "0x6080604052600060015534801561001557600080fd5b50336000806101000a81548173ffffffffffffffffffffffffffffffffffffffff021916908373ffffffffffffffffffffffffffffffffffffffff160217905550610d8f806100656000396000f3fe60806040526004361061004a5760003560e01c8063094455c41461004f578063780bd3f1146101355780638642269e14610238578063e0f6ef8714610266578063ece596b414610291575b600080fd5b34801561005b57600080fd5b506101336004803603608081101561007257600080fd5b810190808035906020019064010000000081111561008f57600080fd5b8201836020820111156100a157600080fd5b803590602001918460018302840111640100000000831117156100c357600080fd5b91908080601f016020809104026020016040519081016040528093929190818152602001838380828437600081840152601f19601f8201169050808301925050505050505091929192908035906020019092919080359060200190929190803590602001909291905050506102e8565b005b34801561014157600080fd5b5061016e6004803603602081101561015857600080fd5b81019080803590602001909291905050506106af565b60405180878152602001806020018681526020018581526020018481526020018373ffffffffffffffffffffffffffffffffffffffff1673ffffffffffffffffffffffffffffffffffffffff168152602001828103825287818151815260200191508051906020019080838360005b838110156101f85780820151818401526020810190506101dd565b50505050905090810190601f1680156102255780820380516001836020036101000a031916815260200191505b5097505050505050505060405180910390f35b6102646004803603602081101561024e57600080fd5b81019080803590602001909291905050506107a3565b005b34801561027257600080fd5b5061027b610bfb565b6040518082815260200191505060405180910390f35b34801561029d57600080fd5b506102a6610c01565b604051808273ffffffffffffffffffffffffffffffffffffffff1673ffffffffffffffffffffffffffffffffffffffff16815260200191505060405180910390f35b6000809054906101000a900473ffffffffffffffffffffffffffffffffffffffff1673ffffffffffffffffffffffffffffffffffffffff163373ffffffffffffffffffffffffffffffffffffffff161461038d576040517f08c379a0000000000000000000000000000000000000000000000000000000008152600401808060200182810382526022815260200180610d396022913960400191505060405180910390fd5b6000845111610404576040517f08c379a00000000000000000000000000000000000000000000000000000000081526004018080602001828103825260148152602001807f6e616d652063616e6e6f7420626520656d70747900000000000000000000000081525060200191505060405180910390fd5b6000811161047a576040517f08c379a00000000000000000000000000000000000000000000000000000000081526004018080602001828103825260118152602001807f70726963652063616e6e6f74206265203000000000000000000000000000000081525060200191505060405180910390fd5b6001600081548092919060010191905055506040518060c0016040528060015481526020018581526020018481526020018381526020018281526020016000809054906101000a900473ffffffffffffffffffffffffffffffffffffffff1673ffffffffffffffffffffffffffffffffffffffff1681525060026000600154815260200190815260200160002060008201518160000155602082015181600101908051906020019061052d929190610c26565b5060408201518160020155606082015181600301556080820151816004015560a08201518160050160006101000a81548173ffffffffffffffffffffffffffffffffffffffff021916908373ffffffffffffffffffffffffffffffffffffffff1602179055509050507fd3f2fc3ba4b145faf8cf5e427dffec35dec514ca3388339f95ccab1568209c70600154858585856000809054906101000a900473ffffffffffffffffffffffffffffffffffffffff1660405180878152602001806020018681526020018581526020018481526020018373ffffffffffffffffffffffffffffffffffffffff1673ffffffffffffffffffffffffffffffffffffffff168152602001828103825287818151815260200191508051906020019080838360005b8381101561066a57808201518184015260208101905061064f565b50505050905090810190601f1680156106975780820380516001836020036101000a031916815260200191505b5097505050505050505060405180910390a150505050565b6002602052806000526040600020600091509050806000015490806001018054600181600116156101000203166002900480601f0160208091040260200160405190810160405280929190818152602001828054600181600116156101000203166002900480156107615780601f1061073657610100808354040283529160200191610761565b820191906000526020600020905b81548152906001019060200180831161074457829003601f168201915b5050505050908060020154908060030154908060040154908060050160009054906101000a900473ffffffffffffffffffffffffffffffffffffffff16905086565b6000809054906101000a900473ffffffffffffffffffffffffffffffffffffffff1673ffffffffffffffffffffffffffffffffffffffff163373ffffffffffffffffffffffffffffffffffffffff161415610849576040517f08c379a0000000000000000000000000000000000000000000000000000000008152600401808060200182810382526021815260200180610d186021913960400191505060405180910390fd5b610851610ca6565b600260008381526020019081526020016000206040518060c001604052908160008201548152602001600182018054600181600116156101000203166002900480601f0160208091040260200160405190810160405280929190818152602001828054600181600116156101000203166002900480156109125780601f106108e757610100808354040283529160200191610912565b820191906000526020600020905b8154815290600101906020018083116108f557829003601f168201915b505050505081526020016002820154815260200160038201548152602001600482015481526020016005820160009054906101000a900473ffffffffffffffffffffffffffffffffffffffff1673ffffffffffffffffffffffffffffffffffffffff1673ffffffffffffffffffffffffffffffffffffffff1681525050905060008160a0015190506000831180156109ac57506001548311155b6109b557600080fd5b81608001513410156109c657600080fd5b338260a0019073ffffffffffffffffffffffffffffffffffffffff16908173ffffffffffffffffffffffffffffffffffffffff1681525050428260400181815250508160026000858152602001908152602001600020600082015181600001556020820151816001019080519060200190610a42929190610c26565b5060408201518160020155606082015181600301556080820151816004015560a08201518160050160006101000a81548173ffffffffffffffffffffffffffffffffffffffff021916908373ffffffffffffffffffffffffffffffffffffffff1602179055509050508073ffffffffffffffffffffffffffffffffffffffff166108fc349081150290604051600060405180830381858888f19350505050158015610af1573d6000803e3d6000fd5b507f8186865916c5a2165122b7bed2ac35da2eb618f4657489bddf2ed240d14765f3826000015183602001518460400151856060015186608001513360405180878152602001806020018681526020018581526020018481526020018373ffffffffffffffffffffffffffffffffffffffff1673ffffffffffffffffffffffffffffffffffffffff168152602001828103825287818151815260200191508051906020019080838360005b83811015610bb7578082015181840152602081019050610b9c565b50505050905090810190601f168015610be45780820380516001836020036101000a031916815260200191505b5097505050505050505060405180910390a1505050565b60015481565b6000809054906101000a900473ffffffffffffffffffffffffffffffffffffffff1681565b828054600181600116156101000203166002900490600052602060002090601f016020900481019282601f10610c6757805160ff1916838001178555610c95565b82800160010185558215610c95579182015b82811115610c94578251825591602001919060010190610c79565b5b509050610ca29190610cf2565b5090565b6040518060c001604052806000815260200160608152602001600081526020016000815260200160008152602001600073ffffffffffffffffffffffffffffffffffffffff1681525090565b610d1491905b80821115610d10576000816000905550600101610cf8565b5090565b9056fe4d616e7566616374757265722063616e7420627579206f776e2070726f647563744f6e6c79206d616e7566616374757265722063616e206164642070726f6475637473a265627a7a72315820e1aa10e2f6b37f62fd346f4b3c2c1f856cb19db3d3a2d0274389b7c588bfc9d964736f6c63430005100032",
  "source": "//SPDX-License-Identifier: MIT\r\npragma solidity >= 0.5.0 < 0.7.0;\r\n\r\ncontract ProductTracker {\r\n\r\n  address payable public product_manufacturer;\r\n  uint public productCount = 0;\r\n\r\n  struct productDetail {\r\n        uint id;\r\n        string name;\r\n        uint dateOfPurchase;\r\n        uint warrantyPeriod;\r\n        uint price;\r\n        address payable ownerAddress;\r\n    }\r\n\r\n  mapping(uint => productDetail) public product;\r\n\r\n  event ProductAdded(\r\n        uint id,\r\n        string name,\r\n        uint dateOfPurchase,\r\n        uint warrantyPeriod,\r\n        uint price,\r\n        address payable ownerAddress\r\n  );\r\n\r\n  event ProductPurchased(\r\n        uint id,\r\n        string name,\r\n        uint dateOfPurchase,\r\n        uint warrantyPeriod,\r\n        uint price,\r\n        address payable ownerAddress\r\n  );\r\n\r\n  constructor () public {\r\n   product_manufacturer = msg.sender;\r\n    }\r\n\r\n   modifier only_manufacturer (){\r\n       require (msg.sender == product_manufacturer, \"Only manufacturer can add products\");\r\n       _;\r\n    }\r\n\r\n   modifier buy_conditions (){\r\n       require (msg.sender != product_manufacturer, \"Manufacturer cant buy own product\");\r\n       _;\r\n    }\r\n\r\n   function addProduct(string memory _name, uint _dateOfPurchase,uint _wPeriod, uint _price) public only_manufacturer{\r\n       //Require a valid name\r\n        require(bytes(_name).length > 0, 'name cannot be empty');\r\n       //Require a valid price\r\n        require(_price > 0,'price cannot be 0');\r\n       //Increment the Product Count\r\n        productCount++;\r\n       //Add the Product\r\n        product[productCount] = productDetail(productCount,_name, _dateOfPurchase, _wPeriod, _price, product_manufacturer);\r\n       //Emit an event when product is added\r\n        emit ProductAdded(productCount,_name, _dateOfPurchase, _wPeriod, _price, product_manufacturer);\r\n\r\n    }\r\n\r\n    function buyProduct(uint _pId) public payable buy_conditions{\r\n        //Fetch the product\r\n        productDetail memory _product = product[_pId];\r\n        //Fetch the owner\r\n        address payable _seller = _product.ownerAddress;\r\n        //Ensure that the product has a valid id\r\n        require(_pId > 0 && _pId <= productCount);\r\n        //Ensure that buyer sends enough ether\r\n        require(msg.value >= _product.price);\r\n        //Ensure that the product has not been purchased already ------------X\r\n        //Transfer the ownership\r\n        _product.ownerAddress = msg.sender;\r\n        //Set date of purchase\r\n        _product.dateOfPurchase = block.timestamp;\r\n        //Update the product\r\n        product[_pId] = _product;\r\n        //Transfer Ether to the seller\r\n        address(_seller).transfer(msg.value);\r\n        //Emit an event\r\n        emit ProductPurchased(_product.id,_product.name, _product.dateOfPurchase, _product.warrantyPeriod, _product.price, msg.sender);     \r\n    }\r\n}\r\n",
  "sourcePath": "C:\\Users\\Reuben\\Desktop\\Ced test\\V3\\marketplace\\src\\contracts\\ProductTracker.sol",
  "compiler": {
    "name": "solc",
    "version": "0.5.16+commit.9c3226ce.Emscripten.clang"
  },
  "schemaVersion": "3.1.0",
  "updatedAt": "2020-08-07T00:25:23.176Z",
  "networkType": "ethereum",
  "devdoc": {
    "methods": {}
  },
  "userdoc": {
    "methods": {}
  }
}