{
  "contractName": "ProductTracker",
  "abi": [
    {
      "inputs": [],
      "payable": false,
      "stateMutability": "nonpayable",
      "type": "constructor"
    },
    {
      "anonymous": false,
      "inputs": [
        {
          "indexed": false,
          "internalType": "uint256",
          "name": "id",
          "type": "uint256"
        },
        {
          "indexed": false,
          "internalType": "string",
          "name": "name",
          "type": "string"
        },
        {
          "indexed": false,
          "internalType": "uint256",
          "name": "dateOfPurchase",
          "type": "uint256"
        },
        {
          "indexed": false,
          "internalType": "uint256",
          "name": "warrantyPeriod",
          "type": "uint256"
        },
        {
          "indexed": false,
          "internalType": "uint256",
          "name": "price",
          "type": "uint256"
        },
        {
          "indexed": false,
          "internalType": "address payable",
          "name": "ownerAddress",
          "type": "address"
        }
      ],
      "name": "ProductAdded",
      "type": "event"
    },
    {
      "anonymous": false,
      "inputs": [
        {
          "indexed": false,
          "internalType": "uint256",
          "name": "id",
          "type": "uint256"
        },
        {
          "indexed": false,
          "internalType": "uint256",
          "name": "price",
          "type": "uint256"
        },
        {
          "indexed": false,
          "internalType": "bool",
          "name": "used",
          "type": "bool"
        }
      ],
      "name": "ProductListed",
      "type": "event"
    },
    {
      "anonymous": false,
      "inputs": [
        {
          "indexed": false,
          "internalType": "uint256",
          "name": "id",
          "type": "uint256"
        },
        {
          "indexed": false,
          "internalType": "string",
          "name": "name",
          "type": "string"
        },
        {
          "indexed": false,
          "internalType": "uint256",
          "name": "dateOfPurchase",
          "type": "uint256"
        },
        {
          "indexed": false,
          "internalType": "uint256",
          "name": "warrantyPeriod",
          "type": "uint256"
        },
        {
          "indexed": false,
          "internalType": "uint256",
          "name": "price",
          "type": "uint256"
        },
        {
          "indexed": false,
          "internalType": "bool",
          "name": "used",
          "type": "bool"
        },
        {
          "indexed": false,
          "internalType": "address payable",
          "name": "ownerAddress",
          "type": "address"
        }
      ],
      "name": "ProductPurchased",
      "type": "event"
    },
    {
      "constant": true,
      "inputs": [
        {
          "internalType": "uint256",
          "name": "",
          "type": "uint256"
        }
      ],
      "name": "product",
      "outputs": [
        {
          "internalType": "uint256",
          "name": "id",
          "type": "uint256"
        },
        {
          "internalType": "string",
          "name": "name",
          "type": "string"
        },
        {
          "internalType": "uint256",
          "name": "dateOfPurchase",
          "type": "uint256"
        },
        {
          "internalType": "uint256",
          "name": "warrantyPeriod",
          "type": "uint256"
        },
        {
          "internalType": "uint256",
          "name": "price",
          "type": "uint256"
        },
        {
          "internalType": "bool",
          "name": "used",
          "type": "bool"
        },
        {
          "internalType": "address payable",
          "name": "ownerAddress",
          "type": "address"
        }
      ],
      "payable": false,
      "stateMutability": "view",
      "type": "function"
    },
    {
      "constant": true,
      "inputs": [],
      "name": "productCount",
      "outputs": [
        {
          "internalType": "uint256",
          "name": "",
          "type": "uint256"
        }
      ],
      "payable": false,
      "stateMutability": "view",
      "type": "function"
    },
    {
      "constant": true,
      "inputs": [],
      "name": "product_manufacturer",
      "outputs": [
        {
          "internalType": "address payable",
          "name": "",
          "type": "address"
        }
      ],
      "payable": false,
      "stateMutability": "view",
      "type": "function"
    },
    {
      "constant": false,
      "inputs": [
        {
          "internalType": "string",
          "name": "_name",
          "type": "string"
        },
        {
          "internalType": "uint256",
          "name": "_dateOfPurchase",
          "type": "uint256"
        },
        {
          "internalType": "uint256",
          "name": "_wPeriod",
          "type": "uint256"
        },
        {
          "internalType": "uint256",
          "name": "_price",
          "type": "uint256"
        }
      ],
      "name": "addProduct",
      "outputs": [],
      "payable": false,
      "stateMutability": "nonpayable",
      "type": "function"
    },
    {
      "constant": false,
      "inputs": [
        {
          "internalType": "uint256",
          "name": "_pId",
          "type": "uint256"
        }
      ],
      "name": "buyProduct",
      "outputs": [],
      "payable": true,
      "stateMutability": "payable",
      "type": "function"
    },
    {
      "constant": false,
      "inputs": [
        {
          "internalType": "uint256",
          "name": "_pId",
          "type": "uint256"
        },
        {
          "internalType": "uint256",
          "name": "_price",
          "type": "uint256"
        }
      ],
      "name": "sellProduct",
      "outputs": [],
      "payable": false,
      "stateMutability": "nonpayable",
      "type": "function"
    }
  ],
  "bytecode": "0x6080604052600060015534801561001557600080fd5b50336000806101000a81548173ffffffffffffffffffffffffffffffffffffffff021916908373ffffffffffffffffffffffffffffffffffffffff1602179055506112a7806100656000396000f3fe6080604052600436106100555760003560e01c8063094455c41461005a57806318b30a4814610140578063780bd3f1146101855780638642269e14610293578063e0f6ef87146102c1578063ece596b4146102ec575b600080fd5b34801561006657600080fd5b5061013e6004803603608081101561007d57600080fd5b810190808035906020019064010000000081111561009a57600080fd5b8201836020820111156100ac57600080fd5b803590602001918460018302840111640100000000831117156100ce57600080fd5b91908080601f016020809104026020016040519081016040528093929190818152602001838380828437600081840152601f19601f820116905080830192505050505050509192919290803590602001909291908035906020019092919080359060200190929190505050610343565b005b34801561014c57600080fd5b506101836004803603604081101561016357600080fd5b810190808035906020019092919080359060200190929190505050610733565b005b34801561019157600080fd5b506101be600480360360208110156101a857600080fd5b8101908080359060200190929190505050610b60565b6040518088815260200180602001878152602001868152602001858152602001841515151581526020018373ffffffffffffffffffffffffffffffffffffffff1673ffffffffffffffffffffffffffffffffffffffff168152602001828103825288818151815260200191508051906020019080838360005b83811015610252578082015181840152602081019050610237565b50505050905090810190601f16801561027f5780820380516001836020036101000a031916815260200191505b509850505050505050505060405180910390f35b6102bf600480360360208110156102a957600080fd5b8101908080359060200190929190505050610c67565b005b3480156102cd57600080fd5b506102d661110a565b6040518082815260200191505060405180910390f35b3480156102f857600080fd5b50610301611110565b604051808273ffffffffffffffffffffffffffffffffffffffff1673ffffffffffffffffffffffffffffffffffffffff16815260200191505060405180910390f35b6000809054906101000a900473ffffffffffffffffffffffffffffffffffffffff1673ffffffffffffffffffffffffffffffffffffffff163373ffffffffffffffffffffffffffffffffffffffff16146103e8576040517f08c379a00000000000000000000000000000000000000000000000000000000081526004018080602001828103825260228152602001806112516022913960400191505060405180910390fd5b600084511161045f576040517f08c379a00000000000000000000000000000000000000000000000000000000081526004018080602001828103825260148152602001807f6e616d652063616e6e6f7420626520656d70747900000000000000000000000081525060200191505060405180910390fd5b600081116104d5576040517f08c379a00000000000000000000000000000000000000000000000000000000081526004018080602001828103825260118152602001807f70726963652063616e6e6f74206265203000000000000000000000000000000081525060200191505060405180910390fd5b6001600081548092919060010191905055506040518060e0016040528060015481526020018581526020018481526020018381526020018281526020016000151581526020016000809054906101000a900473ffffffffffffffffffffffffffffffffffffffff1673ffffffffffffffffffffffffffffffffffffffff16815250600260006001548152602001908152602001600020600082015181600001556020820151816001019080519060200190610591929190611135565b5060408201518160020155606082015181600301556080820151816004015560a08201518160050160006101000a81548160ff02191690831515021790555060c08201518160050160016101000a81548173ffffffffffffffffffffffffffffffffffffffff021916908373ffffffffffffffffffffffffffffffffffffffff1602179055509050507fd3f2fc3ba4b145faf8cf5e427dffec35dec514ca3388339f95ccab1568209c70600154858585856000809054906101000a900473ffffffffffffffffffffffffffffffffffffffff1660405180878152602001806020018681526020018581526020018481526020018373ffffffffffffffffffffffffffffffffffffffff1673ffffffffffffffffffffffffffffffffffffffff168152602001828103825287818151815260200191508051906020019080838360005b838110156106ee5780820151818401526020810190506106d3565b50505050905090810190601f16801561071b5780820380516001836020036101000a031916815260200191505b5097505050505050505060405180910390a150505050565b6000809054906101000a900473ffffffffffffffffffffffffffffffffffffffff1673ffffffffffffffffffffffffffffffffffffffff163373ffffffffffffffffffffffffffffffffffffffff1614156107d9576040517f08c379a00000000000000000000000000000000000000000000000000000000081526004018080602001828103825260218152602001806112306021913960400191505060405180910390fd5b6107e16111b5565b600260008481526020019081526020016000206040518060e001604052908160008201548152602001600182018054600181600116156101000203166002900480601f0160208091040260200160405190810160405280929190818152602001828054600181600116156101000203166002900480156108a25780601f10610877576101008083540402835291602001916108a2565b820191906000526020600020905b81548152906001019060200180831161088557829003601f168201915b505050505081526020016002820154815260200160038201548152602001600482015481526020016005820160009054906101000a900460ff161515151581526020016005820160019054906101000a900473ffffffffffffffffffffffffffffffffffffffff1673ffffffffffffffffffffffffffffffffffffffff1673ffffffffffffffffffffffffffffffffffffffff1681525050905060008311801561094e57506001548311155b61095757600080fd5b8060a00151156109cf576040517f08c379a00000000000000000000000000000000000000000000000000000000081526004018080602001828103825260168152602001807f50726f6475637420616c7265616479206c69737465640000000000000000000081525060200191505060405180910390fd5b6000831180156109e157506001548311155b6109ea57600080fd5b3373ffffffffffffffffffffffffffffffffffffffff168160c0015173ffffffffffffffffffffffffffffffffffffffff1614610a2657600080fd5b60018160a0019015159081151581525050818160800181815250508060026000858152602001908152602001600020600082015181600001556020820151816001019080519060200190610a7b929190611135565b5060408201518160020155606082015181600301556080820151816004015560a08201518160050160006101000a81548160ff02191690831515021790555060c08201518160050160016101000a81548173ffffffffffffffffffffffffffffffffffffffff021916908373ffffffffffffffffffffffffffffffffffffffff1602179055509050507f27afb316742960da9a493f83c8d168cd4a4e44c2a5105aa0520e32696cc060a7816000015182608001518360a001516040518084815260200183815260200182151515158152602001935050505060405180910390a1505050565b6002602052806000526040600020600091509050806000015490806001018054600181600116156101000203166002900480601f016020809104026020016040519081016040528092919081815260200182805460018160011615610100020316600290048015610c125780601f10610be757610100808354040283529160200191610c12565b820191906000526020600020905b815481529060010190602001808311610bf557829003601f168201915b5050505050908060020154908060030154908060040154908060050160009054906101000a900460ff16908060050160019054906101000a900473ffffffffffffffffffffffffffffffffffffffff16905087565b6000809054906101000a900473ffffffffffffffffffffffffffffffffffffffff1673ffffffffffffffffffffffffffffffffffffffff163373ffffffffffffffffffffffffffffffffffffffff161415610d0d576040517f08c379a00000000000000000000000000000000000000000000000000000000081526004018080602001828103825260218152602001806112306021913960400191505060405180910390fd5b610d156111b5565b600260008381526020019081526020016000206040518060e001604052908160008201548152602001600182018054600181600116156101000203166002900480601f016020809104026020016040519081016040528092919081815260200182805460018160011615610100020316600290048015610dd65780601f10610dab57610100808354040283529160200191610dd6565b820191906000526020600020905b815481529060010190602001808311610db957829003601f168201915b505050505081526020016002820154815260200160038201548152602001600482015481526020016005820160009054906101000a900460ff161515151581526020016005820160019054906101000a900473ffffffffffffffffffffffffffffffffffffffff1673ffffffffffffffffffffffffffffffffffffffff1673ffffffffffffffffffffffffffffffffffffffff1681525050905060008160c001519050600083118015610e8b57506001548311155b610e9457600080fd5b8160800151341015610ea557600080fd5b338260c0019073ffffffffffffffffffffffffffffffffffffffff16908173ffffffffffffffffffffffffffffffffffffffff1681525050428260400181815250508160026000858152602001908152602001600020600082015181600001556020820151816001019080519060200190610f21929190611135565b5060408201518160020155606082015181600301556080820151816004015560a08201518160050160006101000a81548160ff02191690831515021790555060c08201518160050160016101000a81548173ffffffffffffffffffffffffffffffffffffffff021916908373ffffffffffffffffffffffffffffffffffffffff1602179055509050508073ffffffffffffffffffffffffffffffffffffffff166108fc349081150290604051600060405180830381858888f19350505050158015610ff0573d6000803e3d6000fd5b507f3028d66bb0f198810a33f9155324fccc7600cb4c2edd025301cf150c553e55db826000015183602001518460400151856060015186608001518760a00151336040518088815260200180602001878152602001868152602001858152602001841515151581526020018373ffffffffffffffffffffffffffffffffffffffff1673ffffffffffffffffffffffffffffffffffffffff168152602001828103825288818151815260200191508051906020019080838360005b838110156110c55780820151818401526020810190506110aa565b50505050905090810190601f1680156110f25780820380516001836020036101000a031916815260200191505b509850505050505050505060405180910390a1505050565b60015481565b6000809054906101000a900473ffffffffffffffffffffffffffffffffffffffff1681565b828054600181600116156101000203166002900490600052602060002090601f016020900481019282601f1061117657805160ff19168380011785556111a4565b828001600101855582156111a4579182015b828111156111a3578251825591602001919060010190611188565b5b5090506111b1919061120a565b5090565b6040518060e001604052806000815260200160608152602001600081526020016000815260200160008152602001600015158152602001600073ffffffffffffffffffffffffffffffffffffffff1681525090565b61122c91905b80821115611228576000816000905550600101611210565b5090565b9056fe4d616e7566616374757265722063616e7420627579206f776e2070726f647563744f6e6c79206d616e7566616374757265722063616e206164642070726f6475637473a265627a7a7231582066ffd47dd5dc9faf6dc89a4693f70807dafbbcb2c244252d4686d81efedbcd1764736f6c63430005100032",
  "source": "//SPDX-License-Identifier: MIT\r\npragma solidity >= 0.5.0 < 0.7.0;\r\n\r\ncontract ProductTracker {\r\n\r\n  address payable public product_manufacturer;\r\n  uint public productCount = 0;\r\n\r\n  struct productDetail {\r\n        uint id;\r\n        string name;\r\n        uint dateOfPurchase;\r\n        uint warrantyPeriod;\r\n        uint price;\r\n        bool used;\r\n        address payable ownerAddress;\r\n    }\r\n\r\n  mapping(uint => productDetail) public product;\r\n\r\n  event ProductAdded(\r\n        uint id,\r\n        string name,\r\n        uint dateOfPurchase,\r\n        uint warrantyPeriod,\r\n        uint price,\r\n        address payable ownerAddress\r\n  );\r\n\r\n  event ProductPurchased(\r\n        uint id,\r\n        string name,\r\n        uint dateOfPurchase,\r\n        uint warrantyPeriod,\r\n        uint price,\r\n        bool used,\r\n        address payable ownerAddress\r\n  );\r\n\r\nevent ProductListed(\r\n        uint id,\r\n        uint price,\r\n        bool used\r\n  );\r\n\r\n  constructor () public {\r\n   product_manufacturer = msg.sender;\r\n    }\r\n\r\n   modifier only_manufacturer (){\r\n       require (msg.sender == product_manufacturer, \"Only manufacturer can add products\");\r\n       _;\r\n    }\r\n\r\n   modifier buy_conditions (){\r\n       require (msg.sender != product_manufacturer, \"Manufacturer cant buy own product\");\r\n       _;\r\n    }\r\n\r\n   function addProduct(string memory _name, uint _dateOfPurchase,uint _wPeriod, uint _price) public only_manufacturer{\r\n       //Require a valid name\r\n        require(bytes(_name).length > 0, 'name cannot be empty');\r\n       //Require a valid price\r\n        require(_price > 0,'price cannot be 0');\r\n       //Increment the Product Count\r\n        productCount++;\r\n       //Add the Product\r\n        product[productCount] = productDetail(productCount,_name, _dateOfPurchase, _wPeriod, _price, false, product_manufacturer);\r\n       //Emit an event when product is added\r\n        emit ProductAdded(productCount,_name, _dateOfPurchase, _wPeriod, _price, product_manufacturer);\r\n\r\n    }\r\n\r\n    function buyProduct(uint _pId) public payable buy_conditions{\r\n        //Fetch the product\r\n        productDetail memory _product = product[_pId];\r\n        //Fetch the owner\r\n        address payable _seller = _product.ownerAddress;\r\n        //Ensure that the product has a valid id\r\n        require(_pId > 0 && _pId <= productCount);\r\n        //Ensure that buyer sends enough ether\r\n        require(msg.value >= _product.price);\r\n        //Transfer the ownership\r\n        _product.ownerAddress = msg.sender;\r\n        //Set date of purchase\r\n        _product.dateOfPurchase = block.timestamp;\r\n        //Update the product\r\n        product[_pId] = _product;\r\n        //Transfer Ether to the seller\r\n        address(_seller).transfer(msg.value);\r\n        //Emit an event\r\n        emit ProductPurchased(_product.id,_product.name, _product.dateOfPurchase, _product.warrantyPeriod, _product.price, _product.used,msg.sender);     \r\n    }\r\n\r\n    function sellProduct(uint _pId, uint _price) public buy_conditions{\r\n       //Fetch the product\r\n        productDetail memory _product = product[_pId];\r\n        //Ensure that the product has a valid id\r\n        require(_pId > 0 && _pId <= productCount);\r\n        //Ensure that the product is not already listed for sale\r\n        require(!_product.used,'Product already listed');\r\n        //Ensure that the product has a valid id\r\n        require(_pId > 0 && _pId <= productCount);\r\n        //Check if owner is correct\r\n        require(_product.ownerAddress == msg.sender);\r\n        //Update the product\r\n        _product.used = true;\r\n        _product.price = _price;\r\n        product[_pId] = _product;\r\n        emit ProductListed(_product.id, _product.price, _product.used);\r\n    }\r\n}\r\n",
  "sourcePath": "C:\\Users\\Reuben\\Desktop\\Ced test\\V3\\marketplace\\src\\contracts\\ProductTracker.sol",
  "compiler": {
    "name": "solc",
    "version": "0.5.16+commit.9c3226ce.Emscripten.clang"
  },
  "schemaVersion": "3.1.0",
  "updatedAt": "2020-08-07T12:50:45.799Z",
  "networkType": "ethereum",
  "devdoc": {
    "methods": {}
  },
  "userdoc": {
    "methods": {}
  }
}